{
  "contractName": "TaskRewards",
  "abi": [
    {
      "inputs": [
        {
          "internalType": "uint256",
          "name": "",
          "type": "uint256"
        }
      ],
      "name": "tasks",
      "outputs": [
        {
          "internalType": "address payable",
          "name": "employer",
          "type": "address"
        },
        {
          "internalType": "address payable",
          "name": "worker",
          "type": "address"
        },
        {
          "internalType": "string",
          "name": "description",
          "type": "string"
        },
        {
          "internalType": "uint256",
          "name": "reward",
          "type": "uint256"
        },
        {
          "internalType": "bool",
          "name": "isCompleted",
          "type": "bool"
        },
        {
          "internalType": "bool",
          "name": "isTaken",
          "type": "bool"
        }
      ],
      "stateMutability": "view",
      "type": "function",
      "constant": true
    },
    {
      "inputs": [
        {
          "internalType": "string",
          "name": "_description",
          "type": "string"
        }
      ],
      "name": "createTask",
      "outputs": [],
      "stateMutability": "payable",
      "type": "function",
      "payable": true
    },
    {
      "inputs": [
        {
          "internalType": "uint256",
          "name": "_taskId",
          "type": "uint256"
        }
      ],
      "name": "takeTask",
      "outputs": [],
      "stateMutability": "nonpayable",
      "type": "function"
    },
    {
      "inputs": [
        {
          "internalType": "uint256",
          "name": "_taskId",
          "type": "uint256"
        }
      ],
      "name": "confirmTask",
      "outputs": [],
      "stateMutability": "nonpayable",
      "type": "function"
    },
    {
      "inputs": [
        {
          "internalType": "uint256",
          "name": "_taskId",
          "type": "uint256"
        }
      ],
      "name": "getTask",
      "outputs": [
        {
          "internalType": "string",
          "name": "",
          "type": "string"
        },
        {
          "internalType": "uint256",
          "name": "",
          "type": "uint256"
        },
        {
          "internalType": "bool",
          "name": "",
          "type": "bool"
        },
        {
          "internalType": "bool",
          "name": "",
          "type": "bool"
        }
      ],
      "stateMutability": "view",
      "type": "function",
      "constant": true
    }
  ],
  "bytecode": "0x608060405234801561001057600080fd5b5061123a806100206000396000f3fe60806040526004361061004a5760003560e01c8063111002aa1461004f5780631d65e77e1461006b57806356deb110146100ab57806368902ccc146100d45780638d977672146100fd575b600080fd5b61006960048036038101906100649190610c9a565b61013f565b005b34801561007757600080fd5b50610092600480360381019061008d9190610d19565b61030d565b6040516100a29493929190610df8565b60405180910390f35b3480156100b757600080fd5b506100d260048036038101906100cd9190610d19565b61052c565b005b3480156100e057600080fd5b506100fb60048036038101906100f69190610d19565b610691565b005b34801561010957600080fd5b50610124600480360381019061011f9190610d19565b61096f565b60405161013696959493929190610e85565b60405180910390f35b60003411610182576040517f08c379a000000000000000000000000000000000000000000000000000000000815260040161017990610f39565b60405180910390fd5b60006040518060c001604052803373ffffffffffffffffffffffffffffffffffffffff168152602001600073ffffffffffffffffffffffffffffffffffffffff168152602001838152602001348152602001600015158152602001600015158152509050600081908060018154018082558091505060019003906000526020600020906005020160009091909190915060008201518160000160006101000a81548173ffffffffffffffffffffffffffffffffffffffff021916908373ffffffffffffffffffffffffffffffffffffffff16021790555060208201518160010160006101000a81548173ffffffffffffffffffffffffffffffffffffffff021916908373ffffffffffffffffffffffffffffffffffffffff16021790555060408201518160020190805190602001906102bc929190610a9d565b506060820151816003015560808201518160040160006101000a81548160ff02191690831515021790555060a08201518160040160016101000a81548160ff02191690831515021790555050505050565b606060008060008080549050851061035a576040517f08c379a000000000000000000000000000000000000000000000000000000000815260040161035190610fa5565b60405180910390fd5b600080868154811061036f5761036e610fc5565b5b90600052602060002090600502016040518060c00160405290816000820160009054906101000a900473ffffffffffffffffffffffffffffffffffffffff1673ffffffffffffffffffffffffffffffffffffffff1673ffffffffffffffffffffffffffffffffffffffff1681526020016001820160009054906101000a900473ffffffffffffffffffffffffffffffffffffffff1673ffffffffffffffffffffffffffffffffffffffff1673ffffffffffffffffffffffffffffffffffffffff16815260200160028201805461044490611023565b80601f016020809104026020016040519081016040528092919081815260200182805461047090611023565b80156104bd5780601f10610492576101008083540402835291602001916104bd565b820191906000526020600020905b8154815290600101906020018083116104a057829003601f168201915b50505050508152602001600382015481526020016004820160009054906101000a900460ff161515151581526020016004820160019054906101000a900460ff1615151515815250509050806040015181606001518260a0015183608001519450945094509450509193509193565b6000805490508110610573576040517f08c379a000000000000000000000000000000000000000000000000000000000815260040161056a90610fa5565b60405180910390fd5b600015156000828154811061058b5761058a610fc5565b5b906000526020600020906005020160040160019054906101000a900460ff161515146105ec576040517f08c379a00000000000000000000000000000000000000000000000000000000081526004016105e3906110a0565b60405180910390fd5b336000828154811061060157610600610fc5565b5b906000526020600020906005020160010160006101000a81548173ffffffffffffffffffffffffffffffffffffffff021916908373ffffffffffffffffffffffffffffffffffffffff16021790555060016000828154811061066657610665610fc5565b5b906000526020600020906005020160040160016101000a81548160ff02191690831515021790555050565b60008054905081106106d8576040517f08c379a00000000000000000000000000000000000000000000000000000000081526004016106cf90610fa5565b60405180910390fd5b60011515600082815481106106f0576106ef610fc5565b5b906000526020600020906005020160040160019054906101000a900460ff16151514610751576040517f08c379a00000000000000000000000000000000000000000000000000000000081526004016107489061110c565b60405180910390fd5b600015156000828154811061076957610768610fc5565b5b906000526020600020906005020160040160009054906101000a900460ff161515146107ca576040517f08c379a00000000000000000000000000000000000000000000000000000000081526004016107c190611178565b60405180910390fd5b600081815481106107de576107dd610fc5565b5b906000526020600020906005020160000160009054906101000a900473ffffffffffffffffffffffffffffffffffffffff1673ffffffffffffffffffffffffffffffffffffffff163373ffffffffffffffffffffffffffffffffffffffff161461087d576040517f08c379a0000000000000000000000000000000000000000000000000000000008152600401610874906111e4565b60405180910390fd5b60016000828154811061089357610892610fc5565b5b906000526020600020906005020160040160006101000a81548160ff021916908315150217905550600081815481106108cf576108ce610fc5565b5b906000526020600020906005020160010160009054906101000a900473ffffffffffffffffffffffffffffffffffffffff1673ffffffffffffffffffffffffffffffffffffffff166108fc6000838154811061092e5761092d610fc5565b5b9060005260206000209060050201600301549081150290604051600060405180830381858888f1935050505015801561096b573d6000803e3d6000fd5b5050565b6000818154811061097f57600080fd5b90600052602060002090600502016000915090508060000160009054906101000a900473ffffffffffffffffffffffffffffffffffffffff16908060010160009054906101000a900473ffffffffffffffffffffffffffffffffffffffff16908060020180546109ee90611023565b80601f0160208091040260200160405190810160405280929190818152602001828054610a1a90611023565b8015610a675780601f10610a3c57610100808354040283529160200191610a67565b820191906000526020600020905b815481529060010190602001808311610a4a57829003601f168201915b5050505050908060030154908060040160009054906101000a900460ff16908060040160019054906101000a900460ff16905086565b828054610aa990611023565b90600052602060002090601f016020900481019282610acb5760008555610b12565b82601f10610ae457805160ff1916838001178555610b12565b82800160010185558215610b12579182015b82811115610b11578251825591602001919060010190610af6565b5b509050610b1f9190610b23565b5090565b5b80821115610b3c576000816000905550600101610b24565b5090565b6000604051905090565b600080fd5b600080fd5b600080fd5b600080fd5b6000601f19601f8301169050919050565b7f4e487b7100000000000000000000000000000000000000000000000000000000600052604160045260246000fd5b610ba782610b5e565b810181811067ffffffffffffffff82111715610bc657610bc5610b6f565b5b80604052505050565b6000610bd9610b40565b9050610be58282610b9e565b919050565b600067ffffffffffffffff821115610c0557610c04610b6f565b5b610c0e82610b5e565b9050602081019050919050565b82818337600083830152505050565b6000610c3d610c3884610bea565b610bcf565b905082815260208101848484011115610c5957610c58610b59565b5b610c64848285610c1b565b509392505050565b600082601f830112610c8157610c80610b54565b5b8135610c91848260208601610c2a565b91505092915050565b600060208284031215610cb057610caf610b4a565b5b600082013567ffffffffffffffff811115610cce57610ccd610b4f565b5b610cda84828501610c6c565b91505092915050565b6000819050919050565b610cf681610ce3565b8114610d0157600080fd5b50565b600081359050610d1381610ced565b92915050565b600060208284031215610d2f57610d2e610b4a565b5b6000610d3d84828501610d04565b91505092915050565b600081519050919050565b600082825260208201905092915050565b60005b83811015610d80578082015181840152602081019050610d65565b83811115610d8f576000848401525b50505050565b6000610da082610d46565b610daa8185610d51565b9350610dba818560208601610d62565b610dc381610b5e565b840191505092915050565b610dd781610ce3565b82525050565b60008115159050919050565b610df281610ddd565b82525050565b60006080820190508181036000830152610e128187610d95565b9050610e216020830186610dce565b610e2e6040830185610de9565b610e3b6060830184610de9565b95945050505050565b600073ffffffffffffffffffffffffffffffffffffffff82169050919050565b6000610e6f82610e44565b9050919050565b610e7f81610e64565b82525050565b600060c082019050610e9a6000830189610e76565b610ea76020830188610e76565b8181036040830152610eb98187610d95565b9050610ec86060830186610dce565b610ed56080830185610de9565b610ee260a0830184610de9565b979650505050505050565b7f596f75206d75737420737065636966792061207265776172642e000000000000600082015250565b6000610f23601a83610d51565b9150610f2e82610eed565b602082019050919050565b60006020820190508181036000830152610f5281610f16565b9050919050565b7f5468657265206973206e6f2073756368207461736b2e00000000000000000000600082015250565b6000610f8f601683610d51565b9150610f9a82610f59565b602082019050919050565b60006020820190508181036000830152610fbe81610f82565b9050919050565b7f4e487b7100000000000000000000000000000000000000000000000000000000600052603260045260246000fd5b7f4e487b7100000000000000000000000000000000000000000000000000000000600052602260045260246000fd5b6000600282049050600182168061103b57607f821691505b60208210810361104e5761104d610ff4565b5b50919050565b7f546865207461736b20697320616c72656164792074616b656e2e000000000000600082015250565b600061108a601a83610d51565b915061109582611054565b602082019050919050565b600060208201905081810360008301526110b98161107d565b9050919050565b7f546865207461736b20686173206e6f7420796574206265656e2074616b656e2e600082015250565b60006110f6602083610d51565b9150611101826110c0565b602082019050919050565b60006020820190508181036000830152611125816110e9565b9050919050565b7f5461736b20616c726561647920636f6d706c6574656400000000000000000000600082015250565b6000611162601683610d51565b915061116d8261112c565b602082019050919050565b6000602082019050818103600083015261119181611155565b9050919050565b7f4f6e6c792074686520637573746f6d65722063616e20636f6e6669726d000000600082015250565b60006111ce601d83610d51565b91506111d982611198565b602082019050919050565b600060208201905081810360008301526111fd816111c1565b905091905056fea264697066735822122015509da7e77b1a54c97b732cbbd894579d7e305a9701bfc2e2befa4054aeb4f364736f6c634300080d0033",
  "immutableReferences": {},
  "source": "// SPDX-License-Identifier: MIT\r\npragma solidity ^0.8.13;\r\n\r\ncontract TaskRewards {\r\n    struct Task {\r\n        address payable employer;  \r\n        address payable worker;    \r\n        string description;       \r\n        uint reward;            \r\n        bool isCompleted;          \r\n        bool isTaken;              \r\n    }\r\n\r\n    Task[] public tasks;\r\n\r\n    function createTask(string memory _description) public payable {\r\n        require(msg.value > 0, \"You must specify a reward.\");\r\n\r\n        Task memory newTask = Task({\r\n            employer: payable(msg.sender),\r\n            worker: payable(address(0)),\r\n            description: _description,\r\n            reward: msg.value,\r\n            isCompleted: false,\r\n            isTaken: false\r\n        });\r\n\r\n        tasks.push(newTask);\r\n    }\r\n\r\n    function takeTask(uint _taskId) public {\r\n        require(_taskId < tasks.length, \"There is no such task.\");\r\n        require(tasks[_taskId].isTaken == false, \"The task is already taken.\");\r\n\r\n        tasks[_taskId].worker = payable(msg.sender);\r\n        tasks[_taskId].isTaken = true;\r\n    }\r\n\r\n    function confirmTask(uint _taskId) public {\r\n        require(_taskId < tasks.length, \"There is no such task.\");\r\n        require(tasks[_taskId].isTaken == true, \"The task has not yet been taken.\");\r\n        require(tasks[_taskId].isCompleted == false, \"Task already completed\");\r\n        require(msg.sender == tasks[_taskId].employer, \"Only the customer can confirm\");\r\n\r\n        tasks[_taskId].isCompleted = true;\r\n        tasks[_taskId].worker.transfer(tasks[_taskId].reward); \r\n    }\r\n\r\n    function getTask(uint _taskId) public view returns (string memory, uint, bool, bool) {\r\n        require(_taskId < tasks.length, \"There is no such task.\");\r\n\r\n        Task memory task = tasks[_taskId];\r\n        return (task.description, task.reward, task.isTaken, task.isCompleted);\r\n    }\r\n}\r\n",
  "sourcePath": "D:\\Step\\Fintech\\Truffle_proj\\contracts\\TaskRewards.sol",
  "compiler": {
    "name": "solc",
    "version": "0.8.13+commit.abaa5c0e.Emscripten.clang"
  },
  "schemaVersion": "3.4.16",
  "updatedAt": "2025-03-31T12:34:41.381Z",
  "networkType": "ethereum",
  "devdoc": {
    "kind": "dev",
    "methods": {},
    "version": 1
  },
  "userdoc": {
    "kind": "user",
    "methods": {},
    "version": 1
  }
}