{
  "contractName": "TaskRewards",
  "abi": [
    {
      "inputs": [
        {
          "internalType": "uint256",
          "name": "",
          "type": "uint256"
        }
      ],
      "name": "tasks",
      "outputs": [
        {
          "internalType": "address payable",
          "name": "employer",
          "type": "address"
        },
        {
          "internalType": "address payable",
          "name": "worker",
          "type": "address"
        },
        {
          "internalType": "string",
          "name": "description",
          "type": "string"
        },
        {
          "internalType": "uint256",
          "name": "reward",
          "type": "uint256"
        },
        {
          "internalType": "bool",
          "name": "isCompleted",
          "type": "bool"
        },
        {
          "internalType": "bool",
          "name": "isTaken",
          "type": "bool"
        }
      ],
      "stateMutability": "view",
      "type": "function"
    },
    {
      "inputs": [
        {
          "internalType": "string",
          "name": "_description",
          "type": "string"
        }
      ],
      "name": "createTask",
      "outputs": [],
      "stateMutability": "payable",
      "type": "function"
    },
    {
      "inputs": [
        {
          "internalType": "uint256",
          "name": "_taskId",
          "type": "uint256"
        }
      ],
      "name": "takeTask",
      "outputs": [],
      "stateMutability": "nonpayable",
      "type": "function"
    },
    {
      "inputs": [
        {
          "internalType": "uint256",
          "name": "_taskId",
          "type": "uint256"
        }
      ],
      "name": "confirmTask",
      "outputs": [],
      "stateMutability": "nonpayable",
      "type": "function"
    },
    {
      "inputs": [
        {
          "internalType": "uint256",
          "name": "_taskId",
          "type": "uint256"
        }
      ],
      "name": "getTask",
      "outputs": [
        {
          "internalType": "string",
          "name": "",
          "type": "string"
        },
        {
          "internalType": "uint256",
          "name": "",
          "type": "uint256"
        },
        {
          "internalType": "bool",
          "name": "",
          "type": "bool"
        },
        {
          "internalType": "bool",
          "name": "",
          "type": "bool"
        }
      ],
      "stateMutability": "view",
      "type": "function"
    }
  ],
  "bytecode": "0x608060405234801561000f575f80fd5b506113648061001d5f395ff3fe608060405260043610610049575f3560e01c8063111002aa1461004d5780631d65e77e1461006957806356deb110146100a857806368902ccc146100d05780638d977672146100f8575b5f80fd5b61006760048036038101906100629190610b91565b610139565b005b348015610074575f80fd5b5061008f600480360381019061008a9190610c0b565b6102f2565b60405161009f9493929190610cd9565b60405180910390f35b3480156100b3575f80fd5b506100ce60048036038101906100c99190610c0b565b610506565b005b3480156100db575f80fd5b506100f660048036038101906100f19190610c0b565b61065f565b005b348015610103575f80fd5b5061011e60048036038101906101199190610c0b565b610921565b60405161013096959493929190610d62565b60405180910390f35b5f341161017b576040517f08c379a000000000000000000000000000000000000000000000000000000000815260040161017290610e12565b60405180910390fd5b5f6040518060c001604052803373ffffffffffffffffffffffffffffffffffffffff1681526020015f73ffffffffffffffffffffffffffffffffffffffff1681526020018381526020013481526020015f151581526020015f151581525090505f81908060018154018082558091505060019003905f5260205f2090600502015f909190919091505f820151815f015f6101000a81548173ffffffffffffffffffffffffffffffffffffffff021916908373ffffffffffffffffffffffffffffffffffffffff1602179055506020820151816001015f6101000a81548173ffffffffffffffffffffffffffffffffffffffff021916908373ffffffffffffffffffffffffffffffffffffffff16021790555060408201518160020190816102a2919061102a565b50606082015181600301556080820151816004015f6101000a81548160ff02191690831515021790555060a08201518160040160016101000a81548160ff02191690831515021790555050505050565b60605f805f8080549050851061033d576040517f08c379a000000000000000000000000000000000000000000000000000000000815260040161033490611143565b60405180910390fd5b5f80868154811061035157610350611161565b5b905f5260205f2090600502016040518060c00160405290815f82015f9054906101000a900473ffffffffffffffffffffffffffffffffffffffff1673ffffffffffffffffffffffffffffffffffffffff1673ffffffffffffffffffffffffffffffffffffffff168152602001600182015f9054906101000a900473ffffffffffffffffffffffffffffffffffffffff1673ffffffffffffffffffffffffffffffffffffffff1673ffffffffffffffffffffffffffffffffffffffff16815260200160028201805461042190610e5d565b80601f016020809104026020016040519081016040528092919081815260200182805461044d90610e5d565b80156104985780601f1061046f57610100808354040283529160200191610498565b820191905f5260205f20905b81548152906001019060200180831161047b57829003601f168201915b5050505050815260200160038201548152602001600482015f9054906101000a900460ff161515151581526020016004820160019054906101000a900460ff1615151515815250509050806040015181606001518260a0015183608001519450945094509450509193509193565b5f80549050811061054c576040517f08c379a000000000000000000000000000000000000000000000000000000000815260040161054390611143565b60405180910390fd5b5f15155f828154811061056257610561611161565b5b905f5260205f20906005020160040160019054906101000a900460ff161515146105c1576040517f08c379a00000000000000000000000000000000000000000000000000000000081526004016105b8906111d8565b60405180910390fd5b335f82815481106105d5576105d4611161565b5b905f5260205f2090600502016001015f6101000a81548173ffffffffffffffffffffffffffffffffffffffff021916908373ffffffffffffffffffffffffffffffffffffffff16021790555060015f828154811061063657610635611161565b5b905f5260205f20906005020160040160016101000a81548160ff02191690831515021790555050565b5f8054905081106106a5576040517f08c379a000000000000000000000000000000000000000000000000000000000815260040161069c90611143565b60405180910390fd5b600115155f82815481106106bc576106bb611161565b5b905f5260205f20906005020160040160019054906101000a900460ff1615151461071b576040517f08c379a000000000000000000000000000000000000000000000000000000000815260040161071290611240565b60405180910390fd5b5f15155f828154811061073157610730611161565b5b905f5260205f2090600502016004015f9054906101000a900460ff1615151461078f576040517f08c379a0000000000000000000000000000000000000000000000000000000008152600401610786906112a8565b60405180910390fd5b5f81815481106107a2576107a1611161565b5b905f5260205f2090600502015f015f9054906101000a900473ffffffffffffffffffffffffffffffffffffffff1673ffffffffffffffffffffffffffffffffffffffff163373ffffffffffffffffffffffffffffffffffffffff161461083d576040517f08c379a000000000000000000000000000000000000000000000000000000000815260040161083490611310565b60405180910390fd5b60015f828154811061085257610851611161565b5b905f5260205f2090600502016004015f6101000a81548160ff0219169083151502179055505f818154811061088a57610889611161565b5b905f5260205f2090600502016001015f9054906101000a900473ffffffffffffffffffffffffffffffffffffffff1673ffffffffffffffffffffffffffffffffffffffff166108fc5f83815481106108e5576108e4611161565b5b905f5260205f2090600502016003015490811502906040515f60405180830381858888f1935050505015801561091d573d5f803e3d5ffd5b5050565b5f818154811061092f575f80fd5b905f5260205f2090600502015f91509050805f015f9054906101000a900473ffffffffffffffffffffffffffffffffffffffff1690806001015f9054906101000a900473ffffffffffffffffffffffffffffffffffffffff169080600201805461099890610e5d565b80601f01602080910402602001604051908101604052809291908181526020018280546109c490610e5d565b8015610a0f5780601f106109e657610100808354040283529160200191610a0f565b820191905f5260205f20905b8154815290600101906020018083116109f257829003601f168201915b505050505090806003015490806004015f9054906101000a900460ff16908060040160019054906101000a900460ff16905086565b5f604051905090565b5f80fd5b5f80fd5b5f80fd5b5f80fd5b5f601f19601f8301169050919050565b7f4e487b71000000000000000000000000000000000000000000000000000000005f52604160045260245ffd5b610aa382610a5d565b810181811067ffffffffffffffff82111715610ac257610ac1610a6d565b5b80604052505050565b5f610ad4610a44565b9050610ae08282610a9a565b919050565b5f67ffffffffffffffff821115610aff57610afe610a6d565b5b610b0882610a5d565b9050602081019050919050565b828183375f83830152505050565b5f610b35610b3084610ae5565b610acb565b905082815260208101848484011115610b5157610b50610a59565b5b610b5c848285610b15565b509392505050565b5f82601f830112610b7857610b77610a55565b5b8135610b88848260208601610b23565b91505092915050565b5f60208284031215610ba657610ba5610a4d565b5b5f82013567ffffffffffffffff811115610bc357610bc2610a51565b5b610bcf84828501610b64565b91505092915050565b5f819050919050565b610bea81610bd8565b8114610bf4575f80fd5b50565b5f81359050610c0581610be1565b92915050565b5f60208284031215610c2057610c1f610a4d565b5b5f610c2d84828501610bf7565b91505092915050565b5f81519050919050565b5f82825260208201905092915050565b5f5b83811015610c6d578082015181840152602081019050610c52565b5f8484015250505050565b5f610c8282610c36565b610c8c8185610c40565b9350610c9c818560208601610c50565b610ca581610a5d565b840191505092915050565b610cb981610bd8565b82525050565b5f8115159050919050565b610cd381610cbf565b82525050565b5f6080820190508181035f830152610cf18187610c78565b9050610d006020830186610cb0565b610d0d6040830185610cca565b610d1a6060830184610cca565b95945050505050565b5f73ffffffffffffffffffffffffffffffffffffffff82169050919050565b5f610d4c82610d23565b9050919050565b610d5c81610d42565b82525050565b5f60c082019050610d755f830189610d53565b610d826020830188610d53565b8181036040830152610d948187610c78565b9050610da36060830186610cb0565b610db06080830185610cca565b610dbd60a0830184610cca565b979650505050505050565b7f596f75206d75737420737065636966792061207265776172642e0000000000005f82015250565b5f610dfc601a83610c40565b9150610e0782610dc8565b602082019050919050565b5f6020820190508181035f830152610e2981610df0565b9050919050565b7f4e487b71000000000000000000000000000000000000000000000000000000005f52602260045260245ffd5b5f6002820490506001821680610e7457607f821691505b602082108103610e8757610e86610e30565b5b50919050565b5f819050815f5260205f209050919050565b5f6020601f8301049050919050565b5f82821b905092915050565b5f60088302610ee97fffffffffffffffffffffffffffffffffffffffffffffffffffffffffffffffff82610eae565b610ef38683610eae565b95508019841693508086168417925050509392505050565b5f819050919050565b5f610f2e610f29610f2484610bd8565b610f0b565b610bd8565b9050919050565b5f819050919050565b610f4783610f14565b610f5b610f5382610f35565b848454610eba565b825550505050565b5f90565b610f6f610f63565b610f7a818484610f3e565b505050565b5b81811015610f9d57610f925f82610f67565b600181019050610f80565b5050565b601f821115610fe257610fb381610e8d565b610fbc84610e9f565b81016020851015610fcb578190505b610fdf610fd785610e9f565b830182610f7f565b50505b505050565b5f82821c905092915050565b5f6110025f1984600802610fe7565b1980831691505092915050565b5f61101a8383610ff3565b9150826002028217905092915050565b61103382610c36565b67ffffffffffffffff81111561104c5761104b610a6d565b5b6110568254610e5d565b611061828285610fa1565b5f60209050601f831160018114611092575f8415611080578287015190505b61108a858261100f565b8655506110f1565b601f1984166110a086610e8d565b5f5b828110156110c7578489015182556001820191506020850194506020810190506110a2565b868310156110e457848901516110e0601f891682610ff3565b8355505b6001600288020188555050505b505050505050565b7f5468657265206973206e6f2073756368207461736b2e000000000000000000005f82015250565b5f61112d601683610c40565b9150611138826110f9565b602082019050919050565b5f6020820190508181035f83015261115a81611121565b9050919050565b7f4e487b71000000000000000000000000000000000000000000000000000000005f52603260045260245ffd5b7f546865207461736b20697320616c72656164792074616b656e2e0000000000005f82015250565b5f6111c2601a83610c40565b91506111cd8261118e565b602082019050919050565b5f6020820190508181035f8301526111ef816111b6565b9050919050565b7f546865207461736b20686173206e6f7420796574206265656e2074616b656e2e5f82015250565b5f61122a602083610c40565b9150611235826111f6565b602082019050919050565b5f6020820190508181035f8301526112578161121e565b9050919050565b7f5461736b20616c726561647920636f6d706c65746564000000000000000000005f82015250565b5f611292601683610c40565b915061129d8261125e565b602082019050919050565b5f6020820190508181035f8301526112bf81611286565b9050919050565b7f4f6e6c792074686520637573746f6d65722063616e20636f6e6669726d0000005f82015250565b5f6112fa601d83610c40565b9150611305826112c6565b602082019050919050565b5f6020820190508181035f830152611327816112ee565b905091905056fea2646970667358221220d3687659a348f96de64afa7bbf6532f1cc02be9dc63139820011563aa954b87e64736f6c63430008150033",
  "immutableReferences": {},
  "source": "// SPDX-License-Identifier: MIT\r\npragma solidity ^0.8.19;\r\n\r\ncontract TaskRewards {\r\n    struct Task {\r\n        address payable employer;  \r\n        address payable worker;    \r\n        string description;       \r\n        uint reward;            \r\n        bool isCompleted;          \r\n        bool isTaken;              \r\n    }\r\n\r\n    Task[] public tasks;\r\n\r\n    function createTask(string memory _description) public payable {\r\n        require(msg.value > 0, \"You must specify a reward.\");\r\n\r\n        Task memory newTask = Task({\r\n            employer: payable(msg.sender),\r\n            worker: payable(address(0)),\r\n            description: _description,\r\n            reward: msg.value,\r\n            isCompleted: false,\r\n            isTaken: false\r\n        });\r\n\r\n        tasks.push(newTask);\r\n    }\r\n\r\n    function takeTask(uint _taskId) public {\r\n        require(_taskId < tasks.length, \"There is no such task.\");\r\n        require(tasks[_taskId].isTaken == false, \"The task is already taken.\");\r\n\r\n        tasks[_taskId].worker = payable(msg.sender);\r\n        tasks[_taskId].isTaken = true;\r\n    }\r\n\r\n    function confirmTask(uint _taskId) public {\r\n        require(_taskId < tasks.length, \"There is no such task.\");\r\n        require(tasks[_taskId].isTaken == true, \"The task has not yet been taken.\");\r\n        require(tasks[_taskId].isCompleted == false, \"Task already completed\");\r\n        require(msg.sender == tasks[_taskId].employer, \"Only the customer can confirm\");\r\n\r\n        tasks[_taskId].isCompleted = true;\r\n        tasks[_taskId].worker.transfer(tasks[_taskId].reward); \r\n    }\r\n\r\n    function getTask(uint _taskId) public view returns (string memory, uint, bool, bool) {\r\n        require(_taskId < tasks.length, \"There is no such task.\");\r\n\r\n        Task memory task = tasks[_taskId];\r\n        return (task.description, task.reward, task.isTaken, task.isCompleted);\r\n    }\r\n}\r\n",
  "sourcePath": "D:\\Step\\Fintech\\Truffle_proj\\contracts\\TaskRewards.sol",
  "compiler": {
    "name": "solc",
    "version": "0.8.21+commit.d9974bed.Emscripten.clang"
  },
  "schemaVersion": "3.4.16",
  "updatedAt": "2025-03-20T17:51:07.625Z",
  "devdoc": {
    "kind": "dev",
    "methods": {},
    "version": 1
  },
  "userdoc": {
    "kind": "user",
    "methods": {},
    "version": 1
  }
}